:0C0000000C9497010C9400000C9400007C
:10000C000C9400000C9400000C9400000C94000064
:10001C000C9400000C9400000C9400000C94000054
:10002C000C9400000C9400000C9400000C94000044
:10003C000C9400000C9400000C9400000C94000034
:10004C000C9400000C940000000000000000004F15
:10005C0000000007000700147F147F14242A7F2A55
:10006C001223130864623649552250000503000020
:10007C00001C2241000041221C0014083E081410F0
:10008C00107C101000005030001010101010006088
:10009C0060000040201008043E5149453E00427F5C
:1000AC00400042615149462141454B311814127FA1
:1000BC001027454545393C4A49493001710905032A
:1000CC003649494936064949291E006C6C00000026
:1000DC005636000008142241002828282828004100
:1000EC002214080201510906324979413E7E111150
:1000FC00117E7F494949363E414141227F4141228F
:10010C001C7F494949417F090909013E4149497A06
:10011C007F0808087F00417F41002040413F017F5C
:10012C00081422417F404040407F020C027F7F0434
:10013C0008107F3E4141413E7F090909063E41516D
:10014C00215E7F09192946464949493101017F0140
:10015C00013F4040403F1F2040201F3F4038403F60
:10016C006314081463030478040361514945430084
:10017C007F41410004081020400041417F000402EF
:10018C00010204404040404000010204002054544D
:10019C0054787F48444438384444442038444448D4
:1001AC007F3854545418087E0901020C5252523EA6
:1001BC007F0804047800447D40002040443D007FCB
:1001CC001028440000417F40007C041804787C080F
:1001DC0004047838444444387C1414140808141467
:1001EC00187C7C080404084854545420043F4440B0
:1001FC00203C4040207C1C2040201C3C4030403C9B
:10020C0044281028440C5050503C4464544C440036
:10021C000836410000007F0000004136080004024F
:10022C00020402000003030202000603030201039E
:10023C00020203000306030202030102030101018F
:10024C000103000007030102020302030007040379
:10025C00020301010203000107030201010302036F
:10026C000004070302030202020300070103020059
:10027C00190050006E00DC00000000000A000A00AB
:10028C00020002000A000A0096009E009600AE00D2
:10029C009600BE002B002B0019002C016E000A00EA
:1002AC00870050000A00E6000E0050000A00E6002D
:1002BC004D000A0042001000020002000200020081
:1002CC00C4009E0018001000C4009E0020200000F6
:1002DC0047616D65204F76657221004E657874001C
:1002EC0053434F52453A00544F533A00202020209C
:1002FC002020000001002D4E414E00000B0060023A
:10030C00DC0205006B02E70207007002EC0205003C
:10031C007702F30207007C02F80201001A040003C2
:10032C000000F894EE27ECBBF1E0FBBFEBBFE5BFA0
:10033C00F8E1F1BDE1BD8DE0A2E0BB27ED938A951C
:10034C00E9F780E098E0A0E6ED930197E9F7E8E0A3
:10035C00F3E085919591009761F0A591B591059089
:10036C001590BF01F00105900D920197E1F7FB018B
:10037C00F0CFEFE5EDBFE8E0EEBFC0E6D2E00C94C5
:10038C007C03AB81AA237AF0AA81BB81A03FE0E079
:10039C00BE074CF4AD81AA2332F0AC81BD81A034F0
:1003AC00E1E0BE070CF014C0E0E2EA93EB81FC81C3
:1003BC000E94A808E1E2EA93ED81FE810E94A80860
:1003CC000E94AC08E881F981FA93EA930E94AA048E
:1003DC00269608950E94B00811F00C94DF040E9438
:1003EC00B70814F40E94BE080E94D408E885F98569
:1003FC003196E887F9870E94B708B4F70C94DF04AC
:10040C000E94B70811F00C94DF040E94B00814F499
:10041C000E94BE080E94D408EE81FF813196EE83C3
:10042C00FF830E94B008B4F70C94DF042497FE01FC
:10043C003696DE0184E00E94730A0E94DF080E9457
:10044C00E808DEDFEE81FF81E883F983EC85FD852A
:10045C00AA81BB81EA0FFB1FEA83FB830E94E80899
:10046C00B9DF0E94DF080E94F708EE83FF830E9429
:10047C00E808B0DFFE01DE01169684E00E94730AE4
:10048C00AA85BB85E881F981EA1BFB0BE883F9831C
:10049C00FE01A4E00E94640AFE013A960E94FE0846
:1004AC00AFDF69C00E94830A0E94F7088F010E9487
:1004BC0006099F01AF81AA231AF4E0E0EE83EF83D3
:1004CC00AE81BF81A03FE0E0BE0724F0EFEEF0E08C
:1004DC00EE83FF83A985AA231AF4E0E0E887E98775
:1004EC00A885B985A034E1E0BE0724F0EFE3F1E084
:1004FC00E887F987003FE0E01E0744F0AE81BF813A
:10050C00E0EFF0E0EA1BFB0BEA87FB872034E1E02D
:10051C003E0744F0A885B985E0E4F1E0EA1BFB0B4B
:10052C00EC87FD87288539850E940609E217F307B9
:10053C0004F1E0E2EA93EF81F8850E94A808E1E279
:10054C00EA933A932A930E9493030E94AC080E9468
:10055C000D090E811F810E94F708E017F1072CF09E
:10056C009598959A0F5F1F4FF6CF939A2F5F3F4F39
:10057C00DBCF0E948A0A2E9608950E94830A0E945D
:10058C0014090E9419090E94AC080E940D0920E070
:10059C0030E02034E1E03E0774F400E010E0003F6E
:1005AC00E0E01E072CF49598959A0F5F1F4FF7CF3C
:1005BC002F5F3F4FEECF939A0E948A0A0C9440070C
:1005CC0024970E94830A10E0153010F00C9451030C
:1005DC0000E0083010F00C944F03EE85F0E0B0977B
:1005EC00A5E0B0E00E94370ADF01E12FF0E0EA0F4E
:1005FC00FB1FEC5AFF4F0E941E0911F40C944D0383
:10060C00AC85BD856D917C910E942509A12F0E941E
:10061C002A09EC83FD83EC85FD8562817381AA85B3
:10062C00BB8512960E94600AA02F0E942A09EE83B5
:10063C00FF8330E0AA85BB8512960E94600AA32F27
:10064C00B0E0AE17BF071CF520E00E942509A22FD1
:10065C00B0E0AE17BF0764F4FE0134960E94FE08AA
:10066C0090DEEC81FD813196EC83FD832F5FEDCF25
:10067C00EE81FF813196EE83FF830E942509AC81C8
:10068C00BD81AE1BBF0BAC83BD833F5FD3CF0F5F70
:10069C00A0CF1F5F99CF0E948A0A2F960895AA8532
:1006AC00BB85EC91E03001F1EA93FE013796FA93A9
:1006BC00EA93FE013596FA93EA93ED81FE81FA9363
:1006CC00EA937EDFEA81FB81A6E0B0E00E94370A64
:1006DC00AE81BF81EA0FFB1FEE83FF83EA85FB85AA
:1006EC003196EA87FB87DBCF0C94F7060E947708DC
:1006FC0021D0E8E4F2E2FA93EA933FDF0E94AF04E0
:10070C00FFCFFFCF92980E9430090E943009929A35
:10071C000E943009E2E3F0E05DC194989398E0E028
:10072C00E8BBEA81EBBB9598959A949A0E9436099E
:10073C0023960895ECEFE1BBEFEFE7BBEABBE2DFFA
:10074C00939A959A969AE3EEEA93E8E0F0E30E9486
:10075C00A808E7EEEA93E2E1F0E00E94A808EFEEC9
:10076C00EA93E1E3F2E10E94A808E1E0EA93E0E019
:10077C00F1E00E94A808E2E0EA93E0E0F7E00E94D2
:10078C00A808E3E0EA93E0E3F0E10E94A808E4E0C3
:10079C000E943F09E8E0EA93E2E0F2E00E94A80838
:1007AC00E9E00E943F09EAE00E943F09ECE00E9468
:1007BC003F09EDE00E943F09EFE00E943F09E0E1B4
:1007CC000E943F09E1E10E944309E2E10E943F09D6
:1007DC00E3E10E943F090E9430090E9430090E9407
:1007EC0030090E943009E0E1EA93E0E9F6E10E9469
:1007FC00A808E1E1EA93E7E2F2E00E94A8080E946F
:10080C003009E2E1EA93ECE1F0E00E94A8080E94D2
:10081C0030090E9414090E941909E0E30E9443095F
:10082C00E1E3EA93E2E0F3E00E94A808E2E3EA9352
:10083C00E5E0F1E00E94A808E5E3EA93E6E0F2E0E7
:10084C000E94A808E6E3EA93E8E0F8E00E94A80812
:10085C00E7E3EA93E6E0F2E00E94A808E8E3EA9313
:10086C00E4E0F5E00E94A808E9E30E944309ECE308
:10087C00EA93E5E0F1E00E94A808EDE3EA93E8E0F2
:10088C00F8E00E94A808E0E50E943F09E1E5EA9340
:10089C00EFEEF0E00E94A808E2E50E943F09E3E5D4
:1008AC00EA93EFE3F1E00E94A808E0E6EA93E0E0C7
:1008BC00F7EA0E94A808E1E6EA93E1E0F0E00E9482
:1008CC00A808EAE60E943F09E0E80E943F09E1E837
:1008DC000E943F09E2E80E943F09E3E80E943F09B9
:1008EC00E4E80E943F09E5E80E943F09E0E9EA9349
:1008FC00E0E1F0E00E94A808E2E90E943F09E3E988
:10090C00EA93E3E0F0E00E94A808E5E9EA93E0E16D
:10091C00F1E00E94A808E7E90E943F09E8E90E947B
:10092C003F09E7E0EA93E3E3F1E00E94A8080895A9
:10093C0094989398E0E0E8BBE881EBBB9598959A86
:10094C00939A949A2196089593980E943609229628
:10095C0008952897E2E0E883E0E0E983E2E00E9472
:10096C004709EEE1EE83E0E0EF831A930A9300E689
:10097C0012E035D0B1D065D0DBD1F0D0ECD217D3AA
:10098C00E0911904E03019F4B3D215D0F9CF1A93D1
:10099C000A93FE013896A4E00E94640AFE01389680
:1009AC00A4E00E94640A0E944F090E945503198119
:1009BC0008812A96089526D3E03021F4FAD01ED16E
:1009CC00CDD006C09CD20FD261D3E03009F4B0D1A7
:1009DC00E8ECF0E0FA93EA930E94110A08950E9461
:1009EC00830A4424552466247724E0E0F8EF5F0161
:1009FC004F010E945409E0E0E0931704E0931804BF
:100A0C00E0931904E4E1F0E0E0931504F09316048C
:100A1C0020E030E02431E0E03E0794F400E010E008
:100A2C000A30E0E01E074CF40E945E09E0E0F0E0C2
:100A3C00ED93FC930F5F1F4FF3CF2F5F3F4FEACF28
:100A4C0021C3609780E1A0E0B0E0ECE7F2E00E9407
:100A5C008F0A0E94830A0E946C090E94720920E08E
:100A6C0030E02431E0E03E079CF5D9010E94780982
:100A7C00E05BFF4FEE87FF8700E010E00A30E0E01C
:100A8C001E071CF50E945E090E94600A3097D1F087
:100A9C00D8010E9478097996EC87FD87FE013C9677
:100AAC00A8E00E94640A0E945E090E94600AFA9300
:100ABC00EA930E945802FE013C96A8E00E94640A48
:100ACC000E947D090F5F1F4FD9CF2F5F3F4FC9CFBA
:100ADC000E948A0A64960895E09780E3A0E0B0E053
:100AEC00ECE8F2E00E948F0A0E94810A0BE612E009
:100AFC0020E732E047E752E0FE01BE960E948309F0
:100B0C000E945802FE01B6960E9483090E94580268
:100B1C00FE017E960E9483090E945802FE01769681
:100B2C000E948709FE0176960E9483090E941C028E
:100B3C001A930A93FE0174960E948B093A932A9396
:100B4C00FE013C960E948B095A934A93FE017096C3
:100B5C000E948B090E94880AE69608950E949909C2
:100B6C000E949E092330E0E03E0714F500E010E0FF
:100B7C000330E0E01E07CCF40E94A709BB231AF057
:100B8C000E94AF0909F40EC00E94B9090E947809AD
:100B9C000E94C4099A928A920E9458020E946C097F
:100BAC000E947D090F5F1F4FE3CF2F5F3F4FDACFBE
:100BBC0016C10E9499090E949E092330E0E03E076D
:100BCC00E4F400E010E00330E0E01E079CF40E9427
:100BDC00A709BB231AF00E94AF0909F408C00E94B0
:100BEC00B9090E9478090E94C4090E9472090F5F1A
:100BFC001F4FE9CF2F5F3F4FE0CFF1C00E94C909D3
:100C0C00139654973CF4A3E1B4E0ED91FD91319629
:100C1C00FE93EE9308950E94830A0E94CE093396A8
:100C2C00E491F0E0EC0DFD1D3A973CF520E030E04E
:100C3C002330E0E03E07E4F400E010E00330E0E0B5
:100C4C001E079CF40E94A709BB2352F00E94AF0917
:100C5C0039F0F801EC0DFD1D31960E94D60909F40E
:100C6C0001C010C20F5F1F4FE9CF2F5F3F4FE0CF86
:100C7C00A0DFF60131966F0171DF04C20E94830A76
:100C8C0000240C140D043CF520E030E02330E0E0AF
:100C9C003E07E4F400E010E00330E0E01E079CF4B3
:100CAC000E94A709BB2352F00E94AF0939F0F8014A
:100CBC00EC0DFD1D31970E94D60909F401C0E2C16B
:100CCC000F5F1F4FE9CF2F5F3F4FE0CF72DFF60171
:100CDC0031976F0143DFD6C12897E9E1E883E0E063
:100CEC00E9830E944709EAE0EE83E0E0EF831A9380
:100CFC000A93AA85BB850E947809E05BFF4FEC83C1
:100D0C00FD8300E010E00A30E0E01E0774F4FE0101
:100D1C0032960E948709EA81FB813B96EA83FB832A
:100D2C000E9430090F5F1F4FEECF1981088159C007
:100D3C002897EBE9E883E0E0E983E3EC0E944709BC
:100D4C00EAE0EE83E0E0EF830E94830A0E945409FC
:100D5C002301D3011196EFE0F0E00E944F0A3F010E
:100D6C004501E0E0F8EF5F0120E030E02330E0E007
:100D7C003E07ACF500E010E00330E0E01E071CF588
:100D8C00F301A5E0B0E00E94290AE05DFD4FE20FFF
:100D9C00F31F0E941E0959F00E946C09BA92AA9284
:100DAC000E9458020E946C090E947D0904C00E9496
:100DBC006C090E947209EC81FD813B96EC83FD83EA
:100DCC000F5F1F4FD9CFEE81FF813B96EE83FF83E0
:100DDC00EBE9F0E0EC83FD832F5F3F4FC7CF0E9420
:100DEC008A0A2C9608950E94810A50E023E130E093
:100DFC003323F2F100E010E00A30E0E01E074CF47F
:100E0C000E945E090E94600A309719F00F5F1F4F15
:100E1C00F3CF0A30E0E01E0744F15F5FE52FE130CD
:100E2C0021F40E94EA0931960BC0E23021F40E94B1
:100E3C00EA09349605C0E33039F40E94EA09389681
:100E4C00E0931704F09318043A932A9345DF3A93EE
:100E5C002A9312D0F6DD7FD02F5F3F4FA5E1B4E08F
:100E6C00ED91FD913196FE93EE9321503040C0CF21
:100E7C000E94880A269608951A930A93AA81BB8128
:100E8C000E947D0A1CF500E010E00A30E0E01E072D
:100E9C00BCF40E94EF090F01DF01EA81FB81EE0F28
:100EAC00FF1FEA0FFB1FBF01D001EA81FB813197C5
:100EBC000E94F709DB01ED93FC930F5F1F4FE5CF09
:100ECC00EA81FB813197EA83FB83D8CF00E010E005
:100EDC000A30E0E01E074CF40E94EF09A0E0B0E0FD
:100EEC00A083B1830F5F1F4FF3CF19810881CCC052
:100EFC00989902C0C3DE02C0999B8DDE08950E94B2
:100F0C00830A20E030E02330E0E03E071CF500E0EF
:100F1C0010E00330E0E01E07D4F40E94A709BB23C5
:100F2C001AF00E94AF0909F40FC0F8010E94FE09E3
:100F3C00F9010E94C909EA0FFB1FD001EE0FFF1F38
:100F4C00EA0FFB1F808291820F5F1F4FE2CF2F5F52
:100F5C003F4FD9CF97C02C978CE0A0E0B0E0ECEBE2
:100F6C00F2E00E948F0A1A930A930CE712E0A09108
:100F7C001704B0911804EAE00E94310AFA93EA933C
:100F8C001A930A930E947C08FE0132960E948709EC
:100F9C001A930A93FE013496A4E00E94640AFE019F
:100FAC0070960E94080A198108812E9608956397FD
:100FBC0083E1A0E0B0E0E8ECF2E00E948F0AA0919F
:100FCC001504B0911604E4E1F0E0EA1BFB0BFA9374
:100FDC00EA93FE017296FA93EA930E947C080E94AF
:100FEC006C090E947209FE017096FA93EA93FE0155
:100FFC003E96A4E00E94640AFE0136960E94080AFE
:10100C00639608950E94830A0E94C9091396549707
:10101C0014F0E1E037C000E010E00330E0E01E0720
:10102C0084F520E030E02330E0E03E073CF5F801A9
:10103C000E94C909AE0FBF1F1196BB235AF00E9424
:10104C00CE09E00FF11F1490E22FA1E00E94210ABB
:10105C00E12109F410C0F9010E94FE09F8010E9477
:10106C00C909EA0FFB1F3196D0010E94F70930978E
:10107C0011F0E1E007C02F5F3F4FD5CF0F5F1F4F3F
:10108C00CCCFE0E00E948A0A249608951A930A9322
:10109C00E0911304F09114043396BF010E94CE0921
:1010AC003496E491DB01F0E00E946C0AEA1BFB0B26
:1010BC008F01E0911504F09116040E171F0724F40C
:1010CC000093150410931604A0911604AA231AF485
:1010DC00E1E0E09319046BDFE09119040991199197
:1010EC000895EFEFE5BBE0EFE4BB0895A991B9914A
:1010FC00E991F99130962AF4E095F09531966DE2EC
:10110C006D93E89480E197E20DD088EE93E00AD0DD
:10111C0084E6992707D08AE005D06E2F10D0662779
:10112C006C9308956627E817F90720F06395E81B80
:10113C00F90BC9F7662311F416F008956894605DF5
:10114C006D930895FA93EA930C949303E2E2EA9375
:10115C000C949E04EA81FB81AE81BF81EA17FB07E8
:10116C000895EC81FD81A885B985EA17FB070895E0
:10117C002497FE013A96DE0184E00E94730AFE0178
:10118C003696DE011A9684E00E94730AFE01DE0197
:10119C00169684E00E94730A24960895FE013696F2
:1011AC00A4E00E94640AEC81FD81FA93EA930C940A
:1011BC00C701EA85FB85A881B981EA0FFB1FE8838B
:1011CC00F9830895FE013696A4E00E94640AFE019C
:1011DC003496A4E00E94640AEC85FD85FA93EA93A8
:1011EC000895EA85FB85AE81BF81EA0FFB1F089548
:1011FC00A4E00E94640AEC85FD85FA93EA930895B5
:10120C00EC85FD85A885B985EA0FFB1F0895ED8156
:10121C00F0E0E8BBEC81EBBB93980895E0E2EA9335
:10122C00E0E0F0E08FCFE1E2EA93E0E0F0E08ACF9B
:10123C001490E02FA1E00E94210AE1210895AA85D3
:10124C00BB850E94600A0895B0E00E94370AE60F41
:10125C00F71F0895E2E3F0E0FA93EA930C94110A75
:10126C00E981F0E0E8BBE881EBBB9598959A939AFD
:10127C000895EA93E0E0F0E065CFEA93E7E0F0E070
:10128C0061CFEA83E0E0EB83EAE0EC83E0E0ED831E
:10129C000895E0E0F0E0FA93EA930895E5E0F0E0D9
:1012AC006F01EDEFFFEFE0931304F0931404089536
:1012BC00A8E2A09FF001A19FF00DED57FD4FDF01BB
:1012CC00F901EE0FFF1FAE0FBF1F0895FE013496FC
:1012DC00A8E00E94640A0895E0E4F2E0FA93EA932D
:1012EC000C945802EBE0F0E00E94370A0895EFEFFF
:1012FC00FFEFFA93EA930C941C02A8E00E94640A94
:10130C00C8CFA8E00E94640AE7CFA4E00E94640A58
:10131C00FE013C96A4E00E94640AEFE1F0E0FA932F
:10132C00EA930C9455032897E0E0E883E983A9CF6E
:10133C00EAE0EE83E0E0EF830E94830A20E030E0F5
:10134C000895F901A0911304B0911404AE0FBF1FBE
:10135C000895F201A5E0B0E00E94290AE05DFD4F7E
:10136C00E20FF31F65CFF801EC0DFD1DABE0B0E013
:10137C000E94370A7996EC83FD83E3CFE05BFF4F45
:10138C00EE83FF83A3CFA0911304B09114040895AE
:10139C00F201A5E0B0E00E94290AE05DFD4F08953E
:1013AC00A8E2B0E00E94290AED57FD4F0F01F901A8
:1013BC00EADFEA0FFB1FD001EE0FFF1FAE0FBF1FBE
:1013CC000E94600A30970895E0911704F091180478
:1013DC000895A8E2A09FF001A19FF00DED57FD4FDD
:1013EC000895EE0FFF1FAE0FBF1F0E94600A0895F5
:1013FC00EC0DFD1DA8E2B0E00E94290AED57FD4F4F
:10140C000F010895A4E00E94640AEFE1F0E0FA9362
:10141C00EA930C945503E991F991309639F080EAEE
:10142C009FE00197F1F7A8953197C9F70895F195C9
:10143C00E195F0400895EE230E2EEA2F19F0EE0FF1
:10144C000A94E9F70895FA9FF02DEB9FF00DEA9FAF
:10145C00E02DF10D08956E2F6A9FF0016B9FF00D3A
:10146C0008951AD0F0DF0EF4E2DF08950024112461
:10147C0090E1AA0FBB1F001C111C0E1A1F0A18F4B6
:10148C000E0E1F1E01C0A1609A9599F7FD01D001A7
:10149C000895ECDFFD010895E894F7FF02C0C7DF63
:1014AC006894B7FF06C0A095B095119600F8039408
:1014BC0000FA0895ED91FC9111970895BB27EA0F5E
:1014CC00FB1F02900A921197E1F708951B2EBF2F74
:1014DC00F12D1A2EAE2FE12D08959927EF93FF933E
:1014EC0061916D930197E1F7FF91EF9108950024BD
:1014FC000A160B0608955A934A933A932A931A9311
:10150C000A9308955D814C813B812A811981088160
:10151C000895AC0FBD1F05900D928A95E1F70895C3
:00000001FF
