:0A0000000C9450010C9400000C94C5
:10000A0000000C9400000C9400000C9400000C9466
:10001A0000000C9400000C9400000C9400000C9456
:10002A0000000C9400000C9400000C9400000C9446
:10003A0000000C9400000C9400000C9400000C9436
:10004A0000000C9400000C94000000000000000066
:10005A00004F00000007000700147F147F14242AB1
:10006A007F2A122313086462364955225000050379
:10007A000000001C2241000041221C0014083E0816
:10008A001410107C101000005030001010101010C6
:10009A00006060000040201008043E5149453E00BF
:1000AA00427F400042615149462141454B31181473
:1000BA00127F1027454545393C4A494930017109A3
:1000CA0005033649494936064949291E006C6C0020
:1000DA000000563600000814224100282828282843
:1000EA0000412214080201510906324979413E7E33
:1000FA001111117E7F494949363E414141227F41D2
:10010A0041221C7F494949417F090909013E414968
:10011A00497A7F0808087F00417F41002040413F1B
:10012A00017F081422417F404040407F020C027F39
:10013A007F0408107F3E4141413E7F090909063E7E
:10014A004151215E7F091929464649494931010130
:10015A007F01013F4040403F1F2040201F3F403861
:10016A00403F63140814630304780403615149454A
:10017A0043007F41410004081020400041417F00B4
:10018A0004020102044040404040000102040020F1
:10019A00545454787F4844443838444444203844BA
:1001AA0044487F3854545418087E0901020C5252AC
:1001BA00523E7F0804047800447D40002040443DBC
:1001CA00007F1028440000417F40007C0418047816
:1001DA007C0804047838444444387C14141408080D
:1001EA001414187C7C080404084854545420043F0E
:1001FA004440203C4040207C1C2040201C3C403095
:10020A00403C44281028440C5050503C4464544C00
:10021A0044000836410000007F0000004136080013
:10022A000402020402001027E80364000A00010025
:10023A000010000110000100183C7EDBFF245AA5C3
:10024A006E0264005A000A000A000A000A0032001C
:10025A000A0002000200300080007800A000EF00CF
:10026A003F010000000048656C6C6F2C20576F72CC
:10027A006C64210053434F5245203A2031303532C5
:10028A00300008007C0242020E00600270020E007A
:10029A006E027E020000F894EE27ECBBF1E0FBBF91
:1002AA00EBBFE5BFF8E1F1BDE1BD8DE0A2E0BB2700
:1002BA00ED938A95E9F780E098E0A0E6ED9301973F
:1002CA00E9F7ECE8F2E085919591009761F0A59144
:1002DA00B59105901590BF01F00105900D92019717
:1002EA00E1F7FB01F0CFEFE5EDBFE8E0EEBFC0E6D6
:1002FA00D2E00C94E5042897AA85BB850D901C9042
:10030A00A885B9850E945A08E00DF11DE883F98392
:10031A00EA85FB850280138012960E945A08E00D36
:10032A00F11DEA83FB83FE01DE01149684E00E943C
:10033A006608FE01349684E01FB6F8943FC3AB8189
:10034A00AA237AF0AA81BB81A03FE0E0BE074CF461
:10035A00AD81AA2332F0AC81BD81A034E1E0BE07B1
:10036A000CF091C2E0E2EA93EB81FC810E94FB0669
:10037A00E1E2EA93ED81FE810E94FB060E94FF06FC
:10038A00E881F981FA93EA930E94F3067CC20E94FB
:10039A00030709F0BAC10E940A0714F40E94110760
:1003AA000E942707E885F9853196E887F9870E9430
:1003BA000A07B4F7AAC10E940A0709F0A6C10E9457
:1003CA00030714F40E9411070E942707EE81FF8198
:1003DA003196EE83FF830E940307B4F796C10E9409
:1003EA00700800E010E00E94320749F40E943907C1
:1003FA000E943907EE85FF850E943F07B5C0EA854E
:10040A00FB85AE85BF85EA17FB0749F40E943907C9
:10041A000E943907EE85FF850E944307A5C00E9406
:10042A003207ACF42497FE017096DE0184E00E9444
:10043A006608FE013C96DE01509684E00E9466083A
:10044A00FE01DE011C9684E00E9466082496AC85B3
:10045A00BD85E885F985EA1BFB0B9F01AE85BF8543
:10046A00EA85FB85EA1BFB0BAF010024041605068F
:10047A00C4F542175307BCF40E9439070E94470784
:10048A00040F151FF801EE0FFF1FE217F3073CF0E8
:10049A00EE85FF853196EE87FF87021B130B0E94BC
:1004AA004D0754F71DC00E9439070E944707020FE3
:1004BA00131FF801EE0FFF1FE417F5073CF0EC8558
:1004CA00FD853196EC87FD87041B150BAE85BF852C
:1004DA001196AE87BF87EA85FB85EA17FB071CF7EB
:1004EA0043C0FA010E943308AF0142175307DCF4F4
:1004FA000E9439070E944707041B150BF801EE0FEB
:10050A00FF1FDF01F9010E943308EA17FB073CF0DD
:10051A00EE85FF853197EE87FF87020F131F0E9432
:10052A004D0734F721C00E9439070E944707021B72
:10053A00130BF801EE0FFF1FDF01FA010E943308C7
:10054A00EA17FB073CF0EC85FD853196EC87FD87C1
:10055A00040F151FAE85BF851197AE87BF87EA8541
:10056A00FB85AE17BF07FCF60E94770860960895D0
:10057A002497FE013696DE0184E00E9466080E94F6
:10058A0057070E9460070E944307EE81FF81E883B4
:10059A00F983EC85FD85AA81BB81EA0FFB1FEA83FB
:1005AA00FB830E9460070E943F070E9457070E9430
:1005BA006D07EE83FF830E9460070E943F07FE01DA
:1005CA00DE01169684E00E946608AA85BB85E8814A
:1005DA00F981EA1BFB0B0E947407A4E00E945E08E3
:1005EA00FE013A960E9478070E944307CFC00E94F4
:1005FA0072080E946D078F01EC85FD85A885B98573
:10060A00EA0FFB1F9F01AF81AA231AF4E0E0EE83F1
:10061A00EF83AE81BF81A03FE0E0BE0724F0EFEE9A
:10062A00F0E0EE83FF83A985AA231AF4E0E0E887C5
:10063A00E987A885B985A034E1E0BE0724F0EFE395
:10064A00F1E0E887F987003FE0E01E0744F0AE8159
:10065A00BF81E0EFF0E0EA1BFB0BEA87FB8720345F
:10066A00E1E03E0744F0A885B985E0E4F1E0EA1B41
:10067A00FB0BEC87FD8728853985EC85FD85E2171C
:10068A00F30724F1E0E2EA93EF81F8850E94FB0682
:10069A00E1E2EA933A932A930E94D6050E94FF0662
:1006AA00EC81EBBBED810E947E0793980E811F813E
:1006BA00EA85FB85E017F1072CF09598959A0F5F6C
:1006CA001F4FF6CF939A2F5F3F4FD7CF0E947908DB
:1006DA005DC01A930A930E9481070E9495070E949F
:1006EA009C070E9495070C811D81EE81FF81EC8396
:1006FA00FD830E831F830E9481070E9495070E9433
:10070A009C070E949507198108812A9608952497C3
:10071A001A930A93E885F985EA83FB83E0E0EC8380
:10072A00ED83AA81BB81E1E0F0E0EA1BFB0B8F01BC
:10073A00EC81FD81AA81BB81AE17BF072CF10E9413
:10074A00A307FE0134960E947807FA93EA93C1DF61
:10075A00EC81FD813196EC83FD83112322F4EE0FA7
:10076A00FF1F31960EC0EA81FB813197EA83FB8332
:10077A00AA81BB81EC81FD81EA1BFB0B3196EE0F4E
:10078A00FF1F0E0F1F1FD4CF198108812E960895BF
:10079A002497E0E0EA83EB83EE81FF81AA81BB81A3
:1007AA00EA17FB0710F40C942204E0E0E883E983DB
:1007BA00EE81FF81A881B981EA17FB07C0F1E881C0
:1007CA00F9810E944708BF01EA81FB81AA81BB81A6
:1007DA000E9447086E0F7F1FEE81FF81AE81BF81A5
:1007EA000E943F08E617F707E0F00E94A8070E9458
:1007FA00AC070E94B807FA93EA930E94A3070E94E3
:10080A00AC070E94BD070E94A8070E94AC070E947D
:10081A00B807FA93EA930E94A3070E94AC070E94C2
:10082A00BD07E881F9813196E883F983C1CFEA816E
:10083A00FB813196EA83FB83AFCFC0C00E94720866
:10084A000E94C4070E94C9070E94FF069398ED817F
:10085A000E947E07EC81EBBB20E030E02034E1E02F
:10086A003E0774F400E010E0003FE0E01E072CF4BD
:10087A009598959A0F5F1F4FF7CF2F5F3F4FEECF97
:10088A00939A0E9479082696089524970E947208DE
:10089A0010E0153010F00C94BA0400E0083010F0A3
:1008AA000C94B804EE85F0E0B097A5E0B0E00E94A1
:1008BA004708DF01E12FF0E0EA0FFB1FEC5AFF4F78
:1008CA001490E02FA1E00E943708E12111F40C9462
:1008DA00B604AC85BD856D917C910E94CE07A12F8F
:1008EA000E94D307EC83FD83EC85FD8562817381C9
:1008FA00AA85BB8512960E945A08A02F0E94D30788
:10090A00EE83FF8330E0AA85BB8512960E945A08BF
:10091A00A32FB0E0AE17BF0724F520E00E94CE0750
:10092A00A22FB0E0AE17BF076CF4FE0134960E9406
:10093A0078070E94D907EC81FD813196EC83FD830B
:10094A002F5FECCFEE81FF813196EE83FF830E9409
:10095A00CE07AC81BD81AE1BBF0BAC83BD833F5FAD
:10096A00D2CF0F5F9BCF1F5F94CF0E9479082F963B
:10097A000895AA85BB85EC91E03001F1EA93FE0166
:10098A003796FA93EA93FE013596FA93EA93ED8144
:10099A00FE81FA93EA9379DFEA81FB81A6E0B0E06F
:1009AA000E944708AE81BF81EA0FFB1FEE83FF83D7
:1009BA00EA85FB853196EA87FB87DBCF2C9608957B
:1009CA00A69786E2A0E0B0E0EAE4F2E00E947E08A0
:1009DA0040E652E0F6D0E0EEF7E0FA93EA932EDF33
:1009EA00FE013A96A8E00E945E08E0E0F8EFFA936A
:1009FA00EA93FDDD0E94DD070E94DD07EFEFF0E0DC
:100A0A00FA93EA93ECDC0E94E3070E94E9070E944A
:100A1A00EE07E3E3F0E0FA93EA930E94EE07E4E3D9
:100A2A00F0E0FA93EA930E94EE07E5E3F0E0FA9326
:100A3A00EA93EFE0F0EFFA93EA9369DEE4E1F0E09B
:100A4A00EA8FFB8FE4E6F0E0EC8FFD8F0E94E3076C
:100A5A00EEE1F0E0FA93EA93EFEFFFEFFA93EA930D
:100A6A0097DE00E010E00830E0E01E0714F00C9476
:100A7A007E0520E030E02830E0E03E07BCF5ACE738
:100A8A00B2E0A00FB11F1C90E22FA1E00E9437082C
:100A9A00E12149F1F901EE0FFF1FEAA3FBA3F801D7
:100AAA00EE0FFF1FECA3FDA30E94DD070E94F507CE
:100ABA00EAA1FBA13196EAA3FBA30E94DD070E94EB
:100ACA00F507ECA1FDA13196ECA3FDA30E94DD0779
:100ADA000E94F507EAA1FBA13197EAA3FBA30E94B2
:100AEA00DD070E94F5072F5F3F4FC5CF0F5F1F4FEE
:100AFA00BACF0E94F8070E9405080E940B08E0E09E
:100B0A00FFEF0E941108EFEFF0E00E941108E0E009
:100B1A00FAEFFA93EA932DDFE3E0F0E0EA8BFB8B3E
:100B2A00E4E0F0E0EC8BFD8BE4E1F0E0E88FF98F94
:100B3A00EAE0F0E0EE8BFF8BE881F981FA93EA9321
:100B4A00FE017896A4E00E945E08FE017896A4E071
:100B5A000E945E080E940508FE013296A8E00E94E3
:100B6A005E08EFE1F0E0FA93EA9341DDFE01329686
:100B7A00A8E00E945E08EFEFFFEFFA93EA93F8DC31
:100B8A00FFCFFFCF92980E94E9070E9416080E94A1
:100B9A002708929A0E94E9070E9416080E942708CD
:100BAA00089594989398E0E0E8BBEA81EBBB9598A6
:100BBA00959A949AE9810E947E070E9419082396C1
:100BCA000895ECEFE1BBEFEFE7BBEABBDBDF939AFB
:100BDA00959A969AE3EEEA93E8E0F0E30E94FB0620
:100BEA00E7EEEA93E2E1F0E00E94FB06EFEEEA9319
:100BFA00E1E3F2E10E94FB06E1E0EA93E0E0F1E0E2
:100C0A000E94FB06E2E0EA93E0E0F7E00E94FB06BE
:100C1A00E3E0EA93E0E3F0E10E94FB06E4E00E94ED
:100C2A001F08E8E0EA93E2E0F2E00E94FB06E9E04E
:100C3A000E941F08EAE00E941F08ECE00E941F08B9
:100C4A00EDE00E941F08EFE00E941F08E0E10E9409
:100C5A001F08E1E10E942308E2E10E941F08E3E184
:100C6A000E941F080E94E9070E9416080E9416089F
:100C7A000E9416080E942708E0E1EA93E0E9F6E1FB
:100C8A000E94FB06E1E1EA93E7E2F2E00E94FB063A
:100C9A000E94E9070E942708E2E1EA93ECE1F0E00A
:100CAA000E94FB060E94E9070E9427080E94C407C7
:100CBA000E94C907E0E30E942308E1E3EA93E2E025
:100CCA00F3E00E94FB06E2E3EA93E5E0F1E00E942A
:100CDA00FB06E5E3EA93E6E0F2E00E94FB06E6E3C0
:100CEA00EA93E8E0F8E00E94FB06E7E3EA93E6E02D
:100CFA00F2E00E94FB06E8E3EA93E4E0F5E00E94F2
:100D0A00FB06E9E30E942308ECE3EA93E5E0F1E05D
:100D1A000E94FB06EDE3EA93E8E0F8E00E94FB0696
:100D2A00E0E50E941F08E1E5EA93EFEEF0E00E9499
:100D3A00FB06E2E50E941F08E3E5EA93EFE3F1E030
:100D4A000E94FB06E0E6EA93E0E0F7EA0E94FB066F
:100D5A00E1E6EA93E1E0F0E00E94FB06EAE60E949F
:100D6A001F08E0E80E941F08E1E80E941F08E2E865
:100D7A000E941F08E3E80E941F08E4E80E941F0877
:100D8A00E5E80E941F08E0E9EA93E0E1F0E00E944A
:100D9A00FB06E2E90E941F08E3E9EA93E3E0F0E0D8
:100DAA000E94FB06E5E9EA93E0E1F1E00E94FB0616
:100DBA00E7E90E941F08E8E90E941F08E7E0EA93B2
:100DCA00E3E3F1E00E94FB06089594989398E0E02B
:100DDA00E8BB0E941908949A219608959398E9818C
:100DEA000E947E070E94190822960895FA93EA93B0
:100DFA000C94D605E2E2EA930C94EA06EA81FB81B6
:100E0A00AE81BF81EA17FB070895EC81FD81A885B1
:100E1A00B985EA17FB0708952497FE013A96DE0181
:100E2A0084E00E946608FE013696DE011A9684E086
:100E3A000E946608FE01DE01169684E00E9466089A
:100E4A0024960895FE013696A4E00E945E08EC817D
:100E5A00FD81FA93EA930C94A401E885F985AC859F
:100E6A00BD85EA17FB070895FE013C96A4E00E949F
:100E7A005E080895FA93EA930C94CC01FA93EA93E4
:100E8A000C94E001EA85FB85FA93EA930C94A40199
:100E9A00AC85BD851196AC87BD87E885F985EA17CB
:100EAA00FB070895EA85FB85A881B981EA0FFB1F34
:100EBA00E883F9830895FE013696A4E00E945E084D
:100ECA00FE013496A4E00E945E08EC85FD85089533
:100EDA00EA85FB85AE81BF81EA0FFB1F0895E8838F
:100EEA00F983FE010895A4E00E945E08EC85FD8561
:100EFA000895F0E0E8BB0895E885F985FA93EA9346
:100F0A00FE013696FA93EA930E948001A4E00E94B9
:100F1A005E081FBEEE81FF81FA93EA930C94A40146
:100F2A00EC81FD810E943308EC83FD83E5CFEE81DD
:100F3A00FF810E943308EE83FF83DECFFE013A96DB
:100F4A00FA93EA930895FE01FA93EA93F7CF0E947F
:100F5A008001A4E00E945E081FBEE885F985FA9325
:100F6A00EA930C94A401E881F9810E943308B7CF6F
:100F7A00EA81FB810E943308EA83FB830895E0E259
:100F8A00EA93E0E0F0E032CFE1E2EA93E0E0F0E079
:100F9A002DCFAA85BB850E945A080895B0E00E9409
:100FAA004708E60FF71F0895FA93EA930C94A401F1
:100FBA00FE01B296A4E00E945E080895FE017A96A8
:100FCA00A4E00E945E080895E2E3F0E0FA93EA934F
:100FDA000895EFE0F0EFFA93EA930E948C03EECFC4
:100FEA00E0E0F0E0E1CF5A934A93FE017896A4E05C
:100FFA000E945E08FE017896A4E00E945E080895A9
:10100A00E0E0F0E0FA93EA930C94BE04E88DF98DDF
:10101A007096E88FF98FE7CFFA93EA930E94BE049D
:10102A00F5CF0E942708D0CFE881EBBB9598959A17
:10103A00939A0895EA93E0E0F0E0D8CEEA93E7E0E5
:10104A00F0E0D4CEE991F991309639F080ED97E04D
:10105A000197F1F7A8953197C9F70895F195E195A8
:10106A00F0400895EE230E2EEA2F19F0EE0F0A949F
:10107A00E9F70895FA9FF02DEB9FF00DEA9FE02D16
:10108A00F10D089504D0F6DF0EF4E8DF0895E89430
:10109A00F7FF02C0E3DF6894B7FF06C0A095B095DA
:1010AA00119600F8039400FA0895ED91FC911197B6
:1010BA000895BB27EA0FFB1F02900A921197E1F7E6
:1010CA0008959927EF93FF9361916D930197E1F743
:1010DA00FF91EF9108955A934A933A932A931A9358
:1010EA000A9308955D814C813B812A811981088187
:1010FA000895AC0FBD1F05900D928A95E1F70895EA
:00000001FF
